:10000000FDEF0FF068961200046ED8CF05F0E0CF38
:1000100006F00001E9CF0CF0EACF07F0E1CF08F0DD
:10002000E2CF09F0D9CF0AF0DACF0BF0F3CF12F01C
:10003000F4CF13F0FACF14F0F5CF15F0F6CF16F099
:10004000F7CF17F000C00EF001C00FF002C010F0A3
:1000500003C011F0A0AC30EF00F0A1BC4BEF09F0F1
:10006000A0AA36EF00F0A1BA0CEF09F00EC000F024
:100070000FC001F010C002F011C003F00CC0E9FF86
:1000800007C0EAFF078E08C0E1FF09C0E2FF0AC00F
:10009000D9FF0BC0DAFF12C0F3FF13C0F4FF14C086
:1000A000FAFF15C0F5FF16C0F6FF17C0F7FF0450A2
:1000B00006C0E0FF05C0D8FF1000F76ACA0FF66E51
:1000C000000EF7220900F5501200000302FFFFFFA7
:1000D000FFFFFFFFFFFFFFFFFFFFF76AEA0FF66E6C
:1000E000000EF7220900F550120000FF02FFFFFF8B
:1000F000FFFFFFFFFFFFFFFFFFFFF76A0A0FF66E2C
:10010000010EF7220900F550120040000B004000DC
:1001100000000000000000000000000000000000DF
:1001200000000000000000000000F76A3A0FF66EC1
:10013000010EF7220900F5501200400000004000B7
:1001400000000000000000000000000000000000AF
:1001500000000000000000000000F76A6A0FF66E61
:10016000010EF7220900F5501200090243000201B6
:100170000080320904000001020201000524001081
:1001800001042402020524060001052401000107E0
:100190000581030B00FA09040100020A00000007B0
:1001A0000502024000010705820240000100F76AD3
:1001B000BE0FF66E010EF7220900F5501200020084
:1001C000F76AD00FF66E010EF7220900F550120003
:1001D00012171B20FFFFFFFFF76AE80FF66E010EF4
:1001E000F7220900F5501200120110010200004030
:1001F00005240B00000101020001F76A0A0FF66EE8
:10020000020EF7220900F550120004030904080346
:1002100043004300530020034300430053002000E9
:10022000550053004200200074006F00200055006C
:100230004100520054006D92699468A402D0689401
:10024000FCD7689818EF09F0400E0401016F040E06
:1002500001010E6F180E0EC103F4E8CF02F4880EF0
:100260000401006F046B040E076F580E066F000147
:10027000120070A002D0E8DF7090689A1FEF09F0BA
:100280006A6A689224EF09F001011A9119BF1A8174
:10029000199F1951100803E2000E016E1AD01AA11D
:1002A0000DD0036A1951000108DFFF0802E1000EBA
:1002B00001D0010E016E01010CD00BD0036A19515F
:1002C00000010BDFFF0802E1000E01D0010E016EFC
:1002D00001010001120001011F512103F3CF01F0C0
:1002E000F4CF00F02203F350002620512103F350F5
:1002F0000020026E00011200036A01011851700F04
:10030000E96E0F0E0320EA6EEF6A18C119F10001C1
:10031000BBDF015228E00101206B18C11FF1226BE5
:10032000080E216F0001D7DF010101C0E9FF040EB3
:100330000224EA6EEF6A206B18C11FF1226B080ECF
:10034000216F0001C8DF02C01AF101C019F1040ECB
:1003500001011927000E1A2319C1E9FF040E1A25FD
:10036000EA6EEF6A00011200010E0101176F1751CA
:100370000F0807E317C118F10001BEDF0101172BB9
:10038000F6D7000112000101116B106B250E0F6FE3
:10039000800E0E6F0EC12BF00FC12CF02D6A2E6A4D
:1003A0000E6B0EC12FF00E6B0EC130F0080E0E6FEB
:1003B0000EC131F00001B66BB591336A326AB46B8D
:1003C0001E90B76B1200286A276A01010D6B0D5150
:1003D00001080AE3036A0D51290FE96E000E03209C
:1003E000EA6EEF6A0D2BF3D70001CDDF1B6A010E19
:1003F0001C6E1A6A12006B6A696A6A6A686A6E6AB7
:10040000706AB2DFE0DF160E706E68A602D0FADD09
:10041000FCD79F0E6B6E3D0E696E6D9815DF030E57
:10042000226E29EF09F0698469986D822EEF09F038
:10043000689C33EF09F012C123F012002368120008
:100440000101106B2750281033E010513F0830E3B2
:100450001D50000A000105E0020A0AE0010A0FE04F
:1004600014D026C003F0255078DEE8CF11F10DD06E
:1004700026C003F02550C1DEE8CF11F106D026C01A
:1004800003F02550A9DEE8CF11F1252AD8B4262A99
:100490002750D8B42806270601011051102B580FF9
:1004A000E96E040EEA6ED8B0EA2A11C1EFFFCAD78E
:1004B0002750281004E11051400801E01A6A10C1C9
:1004C00012F10001B8DF120001010F6B266A256AE4
:1004D0001D6A04011B51010A000107E0030A0BE039
:1004E000010A0DE0220A27E03BD0286A120E276E8F
:1004F000030E1D6E37D0286A430E276E33D0020ECE
:100500001D6E01010F6B04011A5101010F5D0BE219
:1005100026C003F02550000170DE2526000E26229D
:1005200001010F2BF0D726C003F02550000165DE36
:10053000276E286A17D0036A04011A51000140DEB1
:10054000256E266A253C02D0265208E026C003F01C
:10055000255003DE276E286A05D002D06FDF11D048
:100560006DDF0FD004011F5308E1285203E127502B
:100570001E5D03E2286A1EC427F0010E1A6E0001F8
:100580005FDF14EF04F001010F5306E1040E226E49
:100590000001EADEEAD00101050E226E040E126FA0
:1005A000980E116F010E106F10510F08D8A0DDD0FA
:1005B00010C118F10001A0DE0101136B036A105194
:1005C00000018BDDFF0867E0040E0101136FD89076
:1005D0001035036A0001A9DD0900F5CF03F0010120
:1005E000146F03C015F1206B10C11FF1226B080EB0
:1005F000216F000170DE01C017F1010E010101241D
:10060000016E000E0220036E01C0E9FF040E0324F8
:10061000EA6E14C1EFFF206B10C11FF1226B080EB0
:10062000216F000158DE01C017F1020E0101012403
:10063000016E000E0220036E01C0E9FF040E0324C8
:10064000EA6E12C1ECFFED5211C1EFFFD8901035E8
:10065000036A00016ADD0900F5CF03F001011127EB
:1006600003501223880E166F15A101D0168115A311
:1006700001D01683206B10C11FF1226B080E216F71
:10068000000129DE010101C0E9FF040E0224EA6E27
:1006900016C1EFFF0001036A0101105100010DDDD9
:1006A000FF0848E001011383206B10C11FF1226B8A
:1006B000080E216F00010FDE02C018F101C017F112
:1006C000040E01011727000E1823020E1725016ED4
:1006D000000E1821036E01C0E9FF040E0324EA6E28
:1006E00012C1ECFFED5211C1EFFFD8901035036A33
:1006F000000103DD0900F5CF03F0010111270350CC
:100700001223206B10C11FF1226B080E216F000114
:10071000E2DD02C018F101C017F1040E0101172734
:10072000000E182317C1E9FF040E1825EA6E400ECB
:10073000EF6E000101011351060802E10E0E136F66
:10074000036A10510001B9DC010803E001011389BB
:100750000001036A01011051700FE96E0F0E0320B2
:10076000EA6E13C1EFFF102B1FD700010CEF04F04E
:1007700004011951000A00010DE0010A15E0020A06
:1007800021E0060A2CE0030A33E00E0A33E0010AF6
:1007900039E049D01CC058F40401596B020E010124
:1007A000126F000148DE40D004011A2D08D0010E5E
:1007B0001C160101126B00013EDE03D00401000192
:1007C0003DDE32D004011A2D07D01C820101126BCC
:1007D000000131DE03D00401000130DE25D0020E1D
:1007E0001A6E1AC424F00101126B000124DE1CD021
:1007F0006BD61AD01BC058F4010E0101126F000114
:100800001ADE12D004011A5101080BE31AC41BF0BE
:100810001AC40FF10001B7D60101126B00010BDE03
:100820000401000101D00ADEAEEF05F01BC00FF19C
:1008300004011951000A000105E00A0A0CE0010A4E
:100840002CE041D00401586B596B020E0101126F6C
:100850000001F1DD39D001010F531CE0010E0F5DE5
:10086000036A0001A4DC016E04011C5DD8A002D063
:10087000010110D0036A1C51290FE96E000E0320FC
:10088000EA6EEFCF58F4010E0101126F0001D3DDC3
:1008900003D001010001D2DD17D001010F5310E098
:1008A000036A04011C51290FE96E000E0320EA6E51
:1008B0001AC4EFFF0101126B0001BDDD03D001017D
:1008C0000001BCDD01D0BADDAEEF05F001011091F1
:1008D0000FBF10810F9F10A119D0206B0FC11FF106
:1008E000226B080E216F0001F6DC02C012F101C07C
:1008F00011F1040E01011127000E122311C1E9FFAD
:10090000040E1225EA6E880EEF6E0FD0206B0FC119
:100910001FF1226B080E216F0001DDDC010101C017
:10092000E9FF040E0224EA6EEF6A036A0F51700FAA
:10093000016E0F0E032201C0E9FF03C0EAFFEF9032
:10094000000123EF05F0010110910FBF10810F9FEF
:1009500010A119D0206B0FC11FF1226B080E216F5F
:100960000001B9DC02C012F101C011F1040E010155
:100970001127000E122311C1E9FF040E1225EA6EA1
:10098000840EEF6E10D0206B0FC11FF1226B080E8A
:10099000216F0001A0DC010101C0E9FF040E022467
:1009A000EA6E840EEF6E00012BEF05F0010110914D
:1009B0000FBF10810F9F10A119D0206B0FC11FF125
:1009C000226B080E216F000186DC02C013F101C00A
:1009D00012F1040E01011227000E132312C1E9FFC8
:1009E000040E1325EA6EEFCF11F110D0206B0FC16A
:1009F0001FF1226B080E216F00016DDC010101C0A7
:100A0000E9FF040E0224EA6EEFCF11F111AF02D01C
:100A100011B502D0000E01D0010E016E000137EFBA
:100A200005F01CC419F130DC01522EE0040119510B
:100A3000010A000105E0020A0BE0030A11E023D0DD
:100A40001CC40FF143D70101126B0001F4DC1CD070
:100A50001CC40FF178D70101126B0001ECDC14D03B
:100A60000401586B596B1CC40FF100019FD7015250
:100A700004E0010E0401586F0001020E0101126F23
:100A80000001D9DC01D0DADCAEEF05F0FE0E236EFA
:100A9000120004011C2D01D002D01C5345E11FC4DB
:100AA00010F11EC40FF11951000A00010BE0010AF8
:100AB0000DE0210A0FE0010A12E0030A23E0010A17
:100AC00028E030D0010EB76FE1DF2DD00FC112F159
:100AD000B2DC29D0020EB76FB581D8DF24D0040E66
:100AE000EA6E580EE96EE26A2B0EE16E070E016E99
:100AF000E6CFEEFF012EFCD7070E0101126F0001B9
:100B00009ADC11D01AC4B6F00101126B000193DC1B
:100B10000AD01AC433F01BC432F00101126B000179
:100B20008ADC01D08BDC04010001AEEF05F01A6A0B
:100B3000040118517F0B000A000107E0010A07E0D9
:100B4000030A07E0230A07E008D012D607D06ED6C2
:100B500005D067D703D09DD701D070DCACEF08F08B
:100B60000101206B10C11FF1226B080E216F0001E3
:100B70006BEC01F0010101C0E9FF040E0224EA6EF2
:100B8000EFCF12F11151020806E112AD02D0116B44
:100B900002D0010E116F115103081CE1840E126F77
:100BA000206B10C11FF1226B080E216F00016BEC4E
:100BB00001F002C016F101C015F1040E0101152764
:100BC000000E162315C1E9FF040E1625EA6E840EE9
:100BD000EF6E07D0112D03D0C80E126F02D0880E11
:100BE000126FD8901035036A000195EC00F00900EF
:100BF000F5CF03F00101136F03C014F1206B10C196
:100C00001FF1226B080E216F00016BEC01F001C097
:100C100015F1010E01010124016E000E0220036E88
:100C200001C0E9FF040E0324EA6E13C1EFFF14A113
:100C300001D0128114A301D01283206B10C11FF1C7
:100C4000226B080E216F00016BEC01F0010101C065
:100C5000E9FF040E0224EA6E12C1EFFF0001120048
:100C6000036A01011E51700FE96E0F0E0320EA6E38
:100C7000EF521BE0206B1EC11FF1226B080E216F8B
:100C800000016BEC01F002C020F101C01FF1040E65
:100C900001011F27000E20231FC1E9FF040E20259C
:100CA000EA6EEFCF21F121AF02D0000E01D0010E8C
:100CB000016E0001120019C11EF1D2DF0152D8B439
:100CC0009BD00101206B19C11FF1226B080E216F0F
:100CD00000016BEC01F002C01FF101C01EF1040E17
:100CE00001011E27000E1F23010E1E25016E000E9E
:100CF0001F21036E01C0E9FF040E0324EA6E1AC12E
:100D0000EFFF1C51020820E1206B19C11FF1226B7B
:100D1000080E216F00016BEC01F002C01FF101C051
:100D20001EF1040E01011E27000E1F231EC1E9FF44
:100D3000040E1F25EA6EEFCF1DF11DAD02D01C6B16
:100D400002D0010E1C6F1AD01C51040817E1206B51
:100D500019C11FF1226B080E216F00016BEC01F02D
:100D6000010101C0E9FF040E0224EA6EEFCF1DF17C
:100D70001DAD03D0010E1C6F01D01C6B1C2D03D0C8
:100D8000480E1D6F02D0080E1D6F206B19C11FF198
:100D9000226B080E216F00016BEC01F002C01FF105
:100DA00001C01EF1040E01011E27000E1F231EC1EB
:100DB000E9FF040E1F25EA6E1DC1EFFF206B19C16C
:100DC0001FF1226B080E216F00016BEC01F002C0D5
:100DD0001FF101C01EF1040E01011E27000E1F238A
:100DE0001EC1E9FF040E1F25EA6EEF508009EF6E69
:100DF000010E016E04D00001000E016E0101000120
:100E00001200B751010A03E0030A08E01BD00101F8
:100E1000126B00011BEC02F0B76B15D0EA6A2B0EC7
:100E2000E96E040EE26E180EE16E070E016EE6CF5B
:100E3000EEFF012EFCD7B76B0101126B00011BEC1A
:100E400002F001D0B76B60EF07F00101206B10C119
:100E50001FF1226B080E216F00016BEC01F002C044
:100E600012F101C011F1010E01010124016E000E09
:100E70000220036E01C0E9FF040E0324EA6EEFCFE7
:100E800001F0026A000154EF07F01E90020E01010A
:100E9000106F116F000164DE12001E80206A020EC6
:100EA0000101106F0001D1D701C01FF01F5201E1F5
:100EB000ECDF67EF07F001010F5304E10001A1D758
:100EC00006D001010F51020803E10001E6D701013C
:100ED0000001120010C16EFF0101105303E0040E67
:100EE000226E02D0020E226E00017CEF07F01B6A18
:100EF0001A6A24C010F1EED786EF08F011C11EF176
:100F0000AFDE015247E00101206B11C11FF1226BDE
:100F1000080E216F00016BEC01F002C01AF101C054
:100F200019F1040E01011927000E1A23020E1925CA
:100F3000016E000E1A21036E01C0E9FF040E0324A6
:100F4000EA6EECCF18F1ED52EFCF17F118C1EAFFBE
:100F500017C1E9FF13C1E2FF12C1E1FF15C102F0A1
:100F600014C101F0015202E0022A02D0025206E04E
:100F7000E6CFEEFF012EFCD7022EFAD711C119F1F0
:100F800015C11BF114C11AF116C11CF1000193DE49
:100F9000015002D0000E016E120015C11BF114C1E8
:100FA0001AF117C11DF116C11CF101011D511B5D84
:100FB0003CE303E11A511C5D38E218511C25016E17
:100FC00019511D21036E1B51035C2FE303E10150F6
:100FD0001A5D2BE218511A2719511B2318511C278F
:100FE00019511D23195303E1185100081DE21A512C
:100FF000D8B41B071A071BC11FF11AC11EF11C51DF
:10100000D8B41D071C071DC1EAFF1CC1E9FFEFCFC3
:1010100020F11BC1EAFF1AC1E9FF20C1EFFF1851FF
:10102000D8B419071807DED720D0195303E1185197
:1010300000081BE21BC11FF11A511A2BD8B41B2B3D
:101040001E6F1DC1EAFF1C511C2BD8B41D2BE96E6D
:10105000EFCF20F11FC1EAFF1EC1E9FF20C1EFFF62
:101060001851D8B419071807E0D714C101F015C1F9
:1010700002F000011200B45336E0B4C010F10101D7
:1010800010513F0802E23F0E106F020E116F136BFA
:10109000340E126F156B10C114F1020E166F0001A1
:1010A0002DDF015220E0036A01011051340F016E5F
:1010B000000E032201C011F103C012F11051000112
:1010C000B45D0101136F156B340E146F03C017F17B
:1010D00001C016F1196B13C118F100015EDF0101A7
:1010E00010510001B45F1200C6DF8DEF08F001015E
:1010F0000F530EE11A2C05D0000120EC02F006D0AF
:1011000001011A50020803E10001F1D6010106D0E5
:101110000F51020803E10001E7D7010100011200AD
:10112000213001010D6F0D330D331F0E0D172152AC
:101130004EE1040100513C0B01010E6F430E04010E
:10114000001701010E51340825E104010451800B00
:1011500001E0046B0001EBD46D98233C07D0010142
:10116000106B030E116F0001FBDC12D00101106B3C
:10117000020E116F0001F4DC2350FE0809E00101AA
:10118000196B1B6B23C01AF1040E1C6F000193DD59
:101190001CD001010E51040819E10F6B00018BDE18
:1011A0000101106B020E116F0001DADC2350FE0802
:1011B0000CE0233C01D009D00101196B1B6B23C04B
:1011C0001AF1010E1C6F000176DD010122D02150C1
:1011D000040812E123680F6B000189DF233C01D072
:1011E00009D00101196B1B6B23C01AF1020E1C6F91
:1011F000000161DD0DD0010121B406D00DC10FF158
:10120000000159DE05D001010DC10FF100016FDFB2
:10121000010100013FEF09F0A19A2252D8B439D060
:101220006852D8B436D068A403D069B41BEF01F07B
:101230006DB22FD068AA03D069BA39EF01F068A265
:1012400003D069B240EF01F068A003D069B0FBEFB2
:1012500001F068A803D069B813EF02F068AC03D0BE
:1012600069BC18EF02F001010C6B68A60AD069A6F0
:1012700008D06CCF21F0000102EC00F051D703D070
:10128000010106D0000101010C510C2B0308EDE215
:10129000000136EF00F0B4BC03D0BF6BBE6BB5836A
:1012A000B4BE03D0B585BF6BBE6BA19C36EF00F01A
:1012B000206461746F73207675656C7461733A2075
:1012C000256C6920207061736F20706F72207675B5
:1012D000656C7461202569206C6F6F703A256C69AC
:1012E000207061736F3A2025692065737461646FA3
:1012F0003A202564200D0A000D63616C69627261F9
:1013000063696F6E0A000D6C6973746F207061728F
:101310006120636F6D656E7A61720A000D736F6292
:1013200072652074656D7065726174757261206498
:1013300065206D6F746F7220726520696E696369D4
:101340006120720A20000D20636F6D706C657461FE
:10135000646F0A006D926D6A696A080E6F6E945030
:101360003009946E226A196AF2BE198EF29EE3EC7D
:1013700001F019BEF28EBEEF09F0ECD7E9EF09F0EB
:10138000196AF2BE198EF29EE3EC01F019BEF28EDC
:101390006D926D6A6D8C00D000D000006D9C140EB3
:1013A0006F6E696A6D86010E226EDAEF09F06DB616
:1013B00001D0E6D7222C0BD06DBA09D0686A696AD1
:1013C000A08AC00EF212110E696E020E226E120079
:1013D000D4D7EDDF22500208FCE16BEF10F01B5078
:1013E000016E6FEF10F01EB001D0FDD72050202A03
:1013F000A30FE96E040EEA6ED8B0EA2AEFCFEEF042
:101400001F50205C07E3196AF2BE198EF29E3DDD83
:1014100019BEF28EEEC001F024EF0AF0EB6B010E64
:10142000E85D006E000EE959036E00C0E9FFEA6E48
:10143000E751EF5C14E0EB2BE9C0EDF0E851E82B4D
:10144000D8B4E92BEC6FCFD7EDC0EAFFECC0E9FFD1
:1014500001C0EFFFEA51EB5DD8B001D0E0D7E85111
:10146000D8B4E907E807E8C0E9FFE9C0EAFFEF6A96
:101470007CEF10F0F8C0FCF0F7C0FBF0FCC003F00C
:10148000FBC0E9FFFCC0EAFFEF522FE0FAC0FEF01C
:10149000F9C0FDF0FEC003F0FDC0E9FFFEC0EAFFA9
:1014A000EF520BE1F751FB5D006EF851FC59036EF2
:1014B00000C001F0026E22D010D0FBC0E9FFFCC0DA
:1014C000EAFFEFCFFFF0FEC003F0FDC0E9FFFEC072
:1014D000EAFFEF50FF5D01E104D0FD2BD8B4FE2BF5
:1014E000D9D7FB2BD8B4FC2BC9D7F751FB5D006EC5
:1014F000F851FC59036E00C001F0026EEAEF0AF0E9
:10150000F8C0FCF0F7C0FBF0FCC003F0FBC0E9FF43
:10151000FCC0EAFFEF5228E0FAC0FEF0F9C0FDF08F
:10152000FEC003F0FDC0E9FFFEC0EAFFEF5218E085
:10153000FBC0E9FFFCC0EAFFEFCFFFF0FEC003F005
:10154000FDC0E9FFFEC0EAFFEF50FF5D05E1FBC013
:1015500001F0FCC002F00BD0FD2BD8B4FE2BE0D77D
:10156000FB2BD8B4FC2BD0D7000E016E026E03EF1C
:101570000BF0F8C0FAF0F7C0F9F0FAC003F0F9C0C8
:10158000E9FFFAC0EAFFEF5204E0F92BD8B4FA2BD6
:10159000F4D7F751F95D006EF851FA59036E00C0A7
:1015A00001F0026E1DEF0BF0EF51F01104E0F0C0FE
:1015B00003F0EF5103D0B9C003F0B851F36F03C08B
:1015C000F4F0F4C0F8F0F3C0F7F0F2C0FAF0F1C0B4
:1015D000F9F050D70150F3270250F423F4C003F080
:1015E000F3C0E9FFF4C0EAFFEF5204E1000E016E20
:1015F000026E2DD0F4C0F8F0F3C0F7F0F2C0FAF0AC
:10160000F1C0F9F07DD702C0F6F001C0F5F0F55356
:1016100002E1F6530DE0F5C0E9FFF6C0EAFFEF6A1C
:10162000F52BD8B4F62BF6C0B9F0F5C0B8F00BD056
:10163000F4C0F8F0F3C0F7F09CD70150F325B86F71
:101640000250F421B96FF3C001F0F4C002F01200AF
:10165000F651F819800BFA6FF6AF05D0F51FF61F9B
:10166000F52BD8B4F62BF8AF05D0F71FF81FF72BE2
:10167000D8B4F82BF551F703F3CF01F0F4CF00F015
:10168000F803F3500026F651F703F3500020026EE2
:10169000FAAF05D0011E021E012AD8B4022ABCEFFF
:1016A0000BF0F36BF16B0A0EF26FF06BEF6BED5119
:1016B000EE1104E1000E016E026EDBD0F351F32B4C
:1016C000ED25E96E000EEE21EA6EEFCFF4F0F45155
:1016D0002D080CE1010EF16FF351F32BED25E96EAE
:1016E000000EEE21EA6EEFCFF4F00CD0F4512B088F
:1016F00009E1F351F32BED25E96E000EEE21EA6EC0
:10170000EFCFF4F0F4512F08D8B0A5D0F451390838
:10171000D8A0A1D0F45130081EE1F351ED25E96EB7
:10172000000EEE21EA6EEF50780809E0F351ED2546
:10173000E96E000EEE21EA6EEF5058080CE1100E33
:10174000F26FF32BF351F32BED25E96E000EEE2132
:10175000EA6EEFCFF4F0F2510A0820E1F4512F08BD
:101760001CE2F451390819E3F66B0A0EF56FF0C06C
:10177000F8F0EFC0F7F06CD7300EF45D0124EF6F96
:10178000000E0220F06FF351F32BED25E96E000EF1
:10179000EE21EA6EEFCFF4F0E1D75DD0F251100800
:1017A0005AE1F451600806E2F4517A0803E3F45177
:1017B000DF0B01D0F451F46FF4512F0803E2F45120
:1017C000390806E2F451400846E2F451460843E382
:1017D000F4512F0817E2F451390814E3EF35F56F8F
:1017E000F035F66FF537F637F537F637F537F63764
:1017F000F00EF517300EF45DF525EF6F000EF621B3
:10180000F06F14D0EF35F56FF035F66FF537F6372A
:10181000F537F637F537F637F00EF517410EF45D6C
:101820000A0FF525EF6F000EF621F06FF351F32B41
:10183000ED25E96E000EEE21EA6EEFCFF4F0F451E3
:10184000600806E2F4517A0803E3F451DF0B01D09B
:10185000F451F46FB1D7F2510A0807E1F12D05D028
:10186000EF1FF01FEF2BD8B4F02BEFC001F0F0C04A
:1018700002F01200006A016AF451D890F5B1002616
:1018800000320132F5B3002600320132F5B50026F0
:1018900000320132F5B7002600320132F5B90026D8
:1018A00000320132F5BB002600320132F5BD0026C0
:1018B00000320132F5BF002600320132C6EF0CF0D3
:1018C000F26BF06B0A0EF16FEF6BED51EE1103E16D
:1018D000000E016EB9D0F251F22BED25E96E000E2B
:1018E000EE21EA6EEFCFF3F0F3512D080CE1010E7B
:1018F000F06FF251F22BED25E96E000EEE21EA6E4B
:10190000EFCFF3F00CD0F3512B0809E1F251F22B99
:10191000ED25E96E000EEE21EA6EEFCFF3F0F35104
:101920002F08D8B089D0F3513908D8A085D0F35109
:1019300030081EE1F251ED25E96E000EEE21EA6E4F
:10194000EF50780809E0F251ED25E96E000EEE2126
:10195000EA6EEF5058080CE1100EF16FF22BF251C5
:10196000F22BED25E96E000EEE21EA6EEFCFF3F0DB
:10197000F1510A081AE1F3512F0816E2F351390820
:1019800013E30A0EF46FEFC0F5F074D7300EF35D79
:101990000124EF6FF251F22BED25E96E000EEE21DE
:1019A000EA6EEFCFF3F0E7D747D0F151100844E1EA
:1019B000F351600806E2F3517A0803E3F351DF0BB9
:1019C00001D0F351F36FF3512F0803E2F3513908BB
:1019D00006E2F351400830E2F35146082DE3F3519B
:1019E0002F080CE2F351390809E3EF39F46FF00ED8
:1019F000F417300EF35DF425EF6F09D0EF39F46F73
:101A0000F00EF417410EF35D0A0FF425EF6FF2515B
:101A1000F22BED25E96E000EEE21EA6EEFCFF3F02A
:101A2000F351600806E2F3517A0803E3F351DF0B48
:101A300001D0F351F36FC7D7F02D04D0F1510A084C
:101A400001E1EF6DEFC001F01200F991A0BAF98148
:101A5000A09AB4517F0802E27F0EB46FB451B42B48
:101A6000036A340FE96E000E0320EA6EF8C0EFFF40
:101A7000F9A101D0A08A40EF0DF0F7C0F8F0E5D74A
:101A8000196AF2BE198EF29E3BEC08F019BEF28E76
:101A900068EF0DF0800ED880B45517E1196AF2BED8
:101AA000198EF29E020E01011E6F000130EC06F04D
:101AB00019BEF28E015208E0196AF2BE198EF29E2A
:101AC0003BEC08F019BEF28EE5D7F6C0F7F0D5D79B
:101AD00012000900F6CFEEF0F7CFEFF0F5CFF6F0F9
:101AE000D9DFEEC0F6FFEFC0F7FFED2FF2D71200FF
:101AF000EACFF5F0E9CFF4F0EEAF08D0F48FF4A917
:101B0000F42BED1FEE1FED2BD8B4EE2BEE39F009C0
:101B1000F06FF027E20FF16F320FF36FEE510F0B02
:101B2000F127F127F327E90FF26FF227F227ED39BA
:101B30000F0BF227F327F237F337F31FF337ED518B
:101B40000F0BF327F037070EEF6F0A0EF207F3279C
:101B5000FDE3F107F227FDE3F007F127FDE3EF07CF
:101B6000F027FDE3EA6AEF0EE96E070EF415F49D27
:101B7000ED52F41507E1F4B9EE52F4B903D0200E9A
:101B8000006E20D0E926000EEA22E950F30803E1B6
:101B9000EA5201E1F48DEF50006E08E1F4BD06D089
:101BA000F4B91BD0F4B702D0200E0BD0F4AF06D09E
:101BB0002D0E006EED50F49DF49F04D0F487F4993F
:101BC000300E0026EACFEEF0E9CFEDF000C0F6F0DF
:101BD00061DFEEC0EAFFEDC0E9FFEE50F4ADD5D70E
:101BE0001200F451016AF35D03E2F3C000F00CD07F
:101BF000006A080EF56FF3370036F451005CD8B078
:101C0000006E0136F52FF7D71200200EEEA9300E28
:101C1000EF6FEDC000F0EDAF08D0001E002A00C04D
:101C2000EDF02D0EEF6FEE8FEE810150EDC0F3F071
:101C3000640EF46FD6DF00C0EDF0300E0124F06FBB
:101C4000EDC0F3F00A0EF46FCCDF300E0024F26F1B
:101C5000300E0124F16FEFC000F0300EF05D04E0B3
:101C6000EE83EEBFEE8512D0EFC0F0F0200EEF6FE6
:101C7000300EF15D04E0EE81EEBFEE8307D0D8A414
:101C8000EE8104E1F0C0F1F0200EF06FEEB505D06A
:101C9000EEB306D0EEB107D009D0EFC0F6F0FADE11
:101CA000F0C0F6F0F7DEF1C0F6F0F4DEF2C0F6F0C8
:101CB000F1DE12005F0EE76FE86BEA6BC20EE96FB0
:101CC000E9C0E9FFEAC0EAFFEF502308D8A4A7D093
:101CD000010EE925ED6F000EEA21EE6FF06FEDC009
:101CE000EFF0F26BE70EF16F5FDC02C0ECF001C0C9
:101CF000EBF0ECC0EEF0EBC0EDF0D3DC02C0BFF0D7
:101D000001C0BEF0F06BEF6BF26BE70EF16F4CDCD5
:101D100002C0ECF001C0EBF0ECC0EEF0EBC0EDF077
:101D2000CFDD01C0E2F0F06BEF6BF26BE70EF16F0D
:101D30003BDC02C0ECF001C0EBF0ECC0EEF0EBC01D
:101D4000EDF0AFDC02C0C1F001C0C0F0F06BEF6B92
:101D5000F26BE70EF16F28DC02C0ECF001C0EBF093
:101D6000ECC0EEF0EBC0EDF0ABDD01C0E0F0F06BED
:101D7000EF6BF26BE70EF16F17DC02C0ECF001C005
:101D8000EBF0ECC0EEF0EBC0EDF09ADD01C0E1F05D
:101D9000B00EF66E120EF76E100EED6F9ADE100E8C
:101DA000E96EBFC0EEF0BEC0EDF0A2DEC30EF66E6F
:101DB000120EF76E120EED6F8CDEE2C0EDF0180E13
:101DC000EE6F23DFD70EF66E120EF76E060EED6F76
:101DD00080DE100EE96EC1C0EEF0C0C0EDF088DE0E
:101DE000E00EF66E120EF76E070EED6F72DEE0C0BB
:101DF000EDF0180EEE6F09DFE90EF66E120EF76EBB
:101E0000090EED6F66DEE1C0EDF0180EEE6FFDDE3F
:101E1000F40EF66E120EF76E030EED6F5ADE7DEFC6
:101E200010F0E051010A07E0030A08E0060A09E0A1
:101E30000C0A0BE00DD0956A8C6A0AD0956A8C6A00
:101E400007D0956A480E8C6E03D0956AC00E8C6ED2
:101E500080EF10F00900F5520CE0F6CFEAF0F7CF72
:101E6000EBF0F5CFF6F016DEEAC0F6FFEBC0F7FFB9
:101E7000F1D71200EA6AEA0EE96EEF500EE00F0E9B
:101E8000016E006A002EFED7012EFBD78F0E006E6A
:101E9000002EFED70000EF2EF2D71200010EEB5FEE
:101EA0000CE3EA6AEB0EE96EEF5007E0020E006EFB
:101EB000002EFED700D0EF2EF9D7120081BE1FD022
:101EC000F80EF66E120EF76EC5DF640EEA6FD2DF03
:101ED00095968C8681BE13D095988C88020EE76FFC
:101EE000C80EEB6FDBDFE72FFBD795988C98020EBF
:101EF000E76FC80EEB6FD2DFE72FFBD7EBD7060EED
:101F0000F66E130EF76EA6DF640EEA6FB3DF81EF95
:101F100010F0E86BE76B956A8C6ABE5302E1BF5321
:101F200054E095908C80030EEA6FC80EEB6FB6DF1D
:101F3000EA2FFBD795908C90030EEA6FC80EEB6FDB
:101F4000ADDFEA2FFBD7E351D8B4E407E307E3534F
:101F50003BE1E45339E1BE51D8B4BF07BE07100ED0
:101F6000E96EBFC0EEF0BEC0EDF0C2DD0D0EF66F43
:101F700091DD0A0EF66F8EDDE46BC70EE36FE96B41
:101F8000E951E25D14E395988C88030EEA6FC80E60
:101F9000EB6F84DFEA2FFBD795988C98030EEA6FDE
:101FA000C80EEB6F7BDFEA2FFBD7E92BE9D7E72BD6
:101FB000D8B4E82BC051E75D07E1C151E85D04E109
:101FC00095968C76E86BE76BA8D7B5B302D0B5A52C
:101FD00009D01C0EF66E130EF76E3CDFC80EEA6FCA
:101FE00049DFF7D7460EF66E130EF76E33DF0A0E93
:101FF000EA6F40DFE16B82EF10F0F86AD09E078E47
:10200000BF6BBE6BC16BC06B010EE06FE16BE26B2F
:10201000E46BC70EE36FB593B595E66BE56BC15006
:10202000C00B0F09C16E070EB46E07D00200B800D6
:10203000001D40C2300180000000000EF86E200E2E
:10204000F76E2C0EF66E0900F550006E000A13E0D4
:102050000900F550016EE8BE05D03F0BEA6E09009D
:10206000F5CFE9FF01BC090001AC0900F5CFEEFF97
:10207000004EE9D7F9D7F86A000E946E956EFF0E00
:10208000936E946A8B6A956A8C6A926A896A040E66
:10209000B46E92500F09926E270E006E002EFED77E
:1020A00000D0B450A19CC00EF212A08C196AF2BEEE
:1020B000198EF29EC3EC01F019BEF28EEA6BE96B49
:1020C000E10EE86FE76BE7C02BF0E8C02CF02D6A5B
:1020D0002E6AE8EF09F0D7EC09F0EFEF09F00152B2
:1020E00011E01EA00AD0250EE76FE96BC20EE86F63
:1020F0001E0EEA6F0EEF0AF0DDD5E12D03D091D66A
:08210000DDD607D7E8D7030084
:020000040030CA
:0E00000007CC3E1E0087A1000FC00FE00F408E
:00000001FF
;PIC18F4550
;CRC=DDCF  CREATED="05-dic.-22 19:59"
